:03000000020003F8
:10005C0002005F12007680FE438E0C758920758D30
:10006C00FD759850D28E90000022900640E4F0A3CB
:10007C00F09007147402F0E4A3F0900716E4F0A3D8
:10008C00F090071AE4F0A3F090071CE4F0A3F090B2
:10009C00071EE4F0A3F0900720E4F0A3F0900722F1
:1000AC00E4F0A3F0900724E4F0A3F0900726E4F02A
:1000BC00A3F090079D7440F0A37406F0900000121A
:1000CC00141D746FC0E07422C0E01217071581155F
:1000DC008190064275F0001215DA90064275F00018
:1000EC001212EAAA82AB83900712EAF0A3EBF0C3D8
:1000FC00EA9420EB64809480500302024BC374405A
:10010C009A74868BF063F08095F0500302024B904A
:10011C0007B47410F0E4A3F08A828B83C002C0038E
:10012C0012182FE5828583F0D003D00245F06003CE
:10013C0002024B8A828B83C002C00312149EAC82D3
:10014C00AD83D003D002900646ECF0A3EDF08A828A
:10015C008B83C002C003C004C00512149EAE82AFD4
:10016C0083D005D004D003D002900648EEF0A3EF64
:10017C00F0BC0005BD00028006BE0062BF005FC07F
:10018C0004C005C006C00774AEC0E07422C0E01203
:10019C00170715811581D007D006D005D004C004EF
:1001AC00C005C006C00774C5C0E07422C0E01217B9
:1001BC000715811581D007D006D005D00478008CA6
:1001CC00828D8388F0C006C007121297D007D00624
:1001DC007C008E828F838CF012129702025D900647
:1001EC0040E0FCA3E0FD900640EA2CF0EB3DA3F0D0
:1001FC00900640E0FCA3E0FD900640EA2CF0EB3DBD
:10020C00A3F0900724E0FCA3E0FD900724EA2CF077
:10021C00EB3DA3F0900726E0FCA3E0FD900726EA57
:10022C002CF0EB3DA3F0900728EAF0A3EBF074E47C
:10023C00C0E07422C0E0121707158115818012747A
:10024C0013C0E07423C0E01217071581158102005A
:10025C00CE900716E0FAA3E0FBC002C0037421C0E5
:10026C00E07423C0E012170715811581D003D0026A
:10027C00C002C003121218AC82D003D0028C82C010
:10028C0002C003C004121206D004D003D002C3EC87
:10029C00648094C1400B74DA8CF063F08095F0505C
:1002AC001AC3EC648094E1500302039CC374FA8C6F
:1002BC00F063F08095F0500302039C900720E0FD62
:1002CC00A3E0FE90072074012DF0E43EA3F090070C
:1002DC001EE0FDA3E0FE90071E74012DF0E43EA38A
:1002EC00F0900646E0FDA3E0FEEA2DFDEB3EFE900D
:1002FC000712E0FFA3E0F8EDB5072BEEB500278C55
:10030C0082C002C003121206D003D002C002C00386
:10031C007437C0E07423C0E012170715811581D023
:10032C0003D0020202658D828E83ECF0900724E0EC
:10033C00FFA3E0F890072474012FF0E438A3F0C079
:10034C0002C003C005C0067459C0E07423C0E0129B
:10035C00170715811581D006D005D003D0028D82E8
:10036C008E83E0FDF582C002C003121206D003D0CA
:10037C00020ABA00010BC002C003747AC0E07423F5
:10038C00C0E012170715811581D003D00202026557
:10039C00BC2503020D18BC2B02801BBC2D030206CE
:1003AC0021BC3D03020BEBBC3F030207F6BC400330
:1003BC000211120211F0900714E0FCA3E0FD90076B
:1003CC001EE0FEA3E0FFC002C003C004C005C006CF
:1003DC00C007747DC0E07423C0E0121707158115A7
:1003EC0081D007D006D005D004D003D002900642AD
:1003FC0075F000C002C003C004C005C006C00712DF
:10040C0015DAD007D006D005D004D003D002900660
:10041C004275F000C002C003C004C005C006C0078E
:10042C001212EAA882A983D007D006D005D004D036
:10043C0003D002900712E8F0A3E9F00EBE00010F02
:10044C0090071EEEF0A3EFF0C3E89414E9648094D7
:10045C008050030205F1C3749098748189F063F0A5
:10046C008095F050030205F1900640E0F508A3E0FA
:10047C00F509C37440950874868509F063F080957E
:10048C00F050030205C7C002C0038C0AEDC50A2553
:10049C00E0C50A33F50BE50A244AF50CE50B3406E6
:1004AC00F50D88828983C004C005C006C007C00052
:1004BC00C00112149EAA82AB83D001D000D007D009
:1004CC0006D005D004850C82850D83EAF0A3EBF0F1
:1004DC00E4BA0004BB000104D003D0026032C002B5
:1004EC00C003C004C005C006C007C000C00174CB67
:1004FC00C0E07423C0E012170715811581D001D01C
:10050C0000D007D006D005D004D003D00202059D40
:10051C00C002C003C004C005C006C007C000C001B3
:10052C0074E4C0E07423C0E012170715811581D064
:10053C0001D000D007D006D005D004D003D0029053
:10054C000640E82508F0E93509A3F0E50A24AEF5E4
:10055C0082E50B3406F583E8F0A3E9F0C002C00392
:10056C00C004C005C006C007C000C001C004C0055F
:10057C00740AC0E07424C0E0121707E58124FCF56E
:10058C0081D001D000D007D006D005D004D003D044
:10059C0002C002C0030CBC00010D900714ECF0A3C8
:1005AC00EDF0900640E0FAA3E0FB900640E82AF05C
:1005BC00E93BA3F0D003D0020203D2900714ECF075
:1005CC00A3EDF090071EEEF0A3EFF0C002C0037491
:1005DC0020C0E07424C0E012170715811581D003E8
:1005EC00D002020265C002C003C004C005C006C030
:1005FC0007742CC0E07424C0E07480C0E01219971A
:10060C00158115811581D007D006D005D004D003F3
:10061C00D0020203D2C002C0037438C0E07424C0FC
:10062C00E012170715811581D003D002C002C00358
:10063C007480C0E07424C0E012170715811581D0B6
:10064C0003D002C002C003121218AC82D003D00235
:10065C00BC79028003020709900648E0FDA3E0FE86
:10066C008D078E0079008F82888389F0C002C003C9
:10067C00C005C006121297D006D005D003D002C018
:10068C0002C003C005C006749CC0E07424C0E01214
:10069C00170715811581D006D005D003D002C002F2
:1006AC00C003C005C00674BDC0E07424C0E01217BE
:1006BC000715811581D006D005D003D0027F00C06C
:1006CC0002C003C005C006C00774E2C0E07424C0B9
:1006DC00E07480C0E0121997E58124FAF581D0030B
:1006EC00D002C002C003121218AD82D003D002BDDA
:1006FC006E03020265BD7902800B020265BC6E02BC
:10070C008003020265C002C00374E7C0E07424C019
:10071C00E012170715811581D003D00290071EE057
:10072C00FCA3E0FD90064275F000C002C003C004BB
:10073C00C0051215DAD005D004D003D0020CBC00D1
:10074C00010D90071EECF0A3EDF090064275F00041
:10075C00C002C003C004C0051212EAAE82AF83D03F
:10076C0005D004D003D0028E00EFC825E0C833F9C1
:10077C00E8244AF582E93406F583E0F8A3E0F9B8F9
:10078C000025B90022C002C003C004C005740FC00C
:10079C00E07425C0E012170715811581D005D0042F
:1007AC00D003D00202073090071EECF0A3EDF07CD2
:1007BC0000888289838CF0C002C003C006C0071277
:1007CC001297D007D006D003D002C002C003C006D7
:1007DC00C0077433C0E07425C0E0121707E581240C
:1007EC00FCF581D003D00202026590071EE0C0E048
:1007FC00A3E0C0E07455C0E07425C0E0121707E513
:10080C008124FCF581900720E0FCA3E0FDC004C02E
:10081C0005C004C0057481C0E07425C0E012170740
:10082C00E58124FCF581D005D004C004C00574AE6C
:10083C00C0E07425C0E012170715811581D005D0D2
:10084C0004C004C0057400C0E07426C0E012170791
:10085C0015811581D005D004900646E0FAA3E0FB83
:10086C008A008B017E00C002C003C004C005C0001A
:10087C00C001C006740BC0E07426C0E07480C0E0F8
:10088C00121997E58124FAF581D005D004D003D054
:10089C0002900724E0FEA3E0FFEE2AFEEF3BFF7878
:1008AC0000C004C005C006C007C0007428C0E074B6
:1008BC0026C0E07480C0E0121997E58124FAF58116
:1008CC00D005D004900728E0FEA3E0FFC004C005CB
:1008DC00C006C007C006C0077443C0E07426C0E061
:1008EC00121707E58124FCF581D007D006D005D07E
:1008FC0004C004C005C006C007C004C005746AC0AB
:10090C00E07426C0E0121707E58124FCF581D007BE
:10091C00D006D005D004EEC39CFCEF9DFDC006C0F4
:10092C0007C004C00574A3C0E07426C0E01217070A
:10093C00E58124FCF581D007D006C006C007747A87
:10094C00C0E07423C0E012170715811581D007D0C1
:10095C0006900648E0FAA3E0FBBA0024BB00217421
:10096C00CCC0E07426C0E01217071581158174E81D
:10097C00C0E07426C0E012170715811581020A73B6
:10098C00C002C003C006C00774ECC0E07426C0E00F
:10099C0012170715811581D007D006D003D0028A13
:1009AC00008B017C00C002C003C006C007C000C0A1
:1009BC0001C00474F7C0E07426C0E07480C0E0127B
:1009CC001997E58124FAF581D007D006D003D0021F
:1009DC00900726E0FCA3E0FDEC2AFCED3BFD780043
:1009EC00C006C007C004C005C0007414C0E0742762
:1009FC00C0E07480C0E0121997E58124FAF581D02B
:100A0C0007D006C006C007C006C007742FC0E0742C
:100A1C0027C0E0121707E58124FCF581D007D0062A
:100A2C00C006C007900722E0C0E0A3E0C0E0745607
:100A3C00C0E07427C0E0121707E58124FCF581D0D3
:100A4C0007D006C006C007748FC0E07427C0E01240
:100A5C001707E58124FCF581747AC0E07423C0E0AB
:100A6C001217071581158190064EE0FCA3E0FDBC22
:100A7C000012BD000F74B8C0E07427C0E012170755
:100A8C00158115817C027D00C004C005C004C00521
:100A9C0074D2C0E07427C0E0121707E58124FCF57E
:100AAC0081D005D0048C02EDCA25E0CA33FBEA24C0
:100ABC004AF50CEB3406F50D850C82850D83E0F8B8
:100ACC00A3E0F97E00C002C003C004C005C000C092
:100ADC0001C00674E6C0E07427C0E07480C0E01268
:100AEC001997E58124FAF581D005D004D003D00202
:100AFC00850C82850D83E0F8A3E0F9EA24AEFAEBCD
:100B0C003406FB8A828B83E0FEA3E0FFEE28FEEF27
:100B1C0039FF7800C002C003C004C005C006C0077E
:100B2C00C0007401C0E07428C0E07480C0E01219E9
:100B3C0097E58124FAF581D005D004D003D0028A40
:100B4C00828B83E0FEA3E0FFC002C003C004C0059B
:100B5C00C006C007C004C005741AC0E07428C0E009
:100B6C00121707E58124FAF581D005D004D003D003
:100B7C0002C002C003C004C005C004C0057445C057
:100B8C00E07428C0E0121707E58124FCF581D0053C
:100B9C00D004D003D0028A828B83E0FEA3E0FFC096
:100BAC0004C005C006C007C004C0057481C0E07451
:100BBC0028C0E0121707E58124FAF581D005D0048E
:100BCC00C004C005747AC0E07423C0E01217071586
:100BDC00811581D005D0040CBC00010D020A94C013
:100BEC0002C00374ECC0E07428C0E0121707158132
:100BFC001581D003D002900646E0FCA3E0FD8C0AE0
:100C0C008D0B8A008B01E4F50CF50DC3E8950CE90E
:100C1C006480850DF063F08095F0500302026590BE
:100C2C0007B47410F0E4A3F0850C82850D83C00228
:100C3C00C003C004C005C000C00112182FE5828596
:100C4C0083F0D001D000D005D004D003D00245F001
:100C5C00706CC002C003C002C003C004C005C00059
:100C6C00C001747AC0E07423C0E012170715811517
:100C7C0081D001D000D005D004D003D002E50C2CDB
:100C8C00FAE50D3DFB7E00C002C003C004C005C0E8
:100C9C0000C001C002C003C0067404C0E07429C0C7
:100CAC00E07480C0E0121997E58124FAF581D00137
:100CBC00D000D005D004D003D002D003D002E50C74
:100CCC00250AF582E50D350BF583E0FE3395E0FF43
:100CDC00C002C003C004C005C000C001C006C007EC
:100CEC007409C0E07429C0E07480C0E0121997E563
:100CFC008124FBF581D001D000D005D004D003D0E5
:100D0C0002050CE4B50C02050D020C17900648E028
:100D1C00FCA3E0FDBC003ABD0037C002C003740D5B
:100D2C00C0E07429C0E012170715811581D003D0DB
:100D3C0002C002C0037420C0E07429C0E07480C0FB
:100D4C00E0121997158115811581D003D00202028A
:100D5C0065C002C0037434C0E07429C0E0121707E8
:100D6C0015811581D003D002C002C00374ECC0E021
:100D7C007428C0E012170715811581D003D002909A
:100D8C000646E0FCA3E0FD8A068B0778007900C3D9
:100D9C00EE98EF648089F063F08095F04056C002C5
:100DAC00C003E82CF582E93DF583E0FA3395E0FBCE
:100DBC00C002C003C004C005C006C007C000C0010B
:100DCC00C002C0037409C0E07429C0E07480C0E0A4
:100DDC00121997E58124FBF581D001D000D007D002
:100DEC0006D005D004D003D00208B8000109D00306
:100DFC00D002809BC002C003747AC0E07423C0E0B0
:100E0C007480C0E0121997158115811581D003D01B
:100E1C0002C002C0037446C0E07429C0E012170778
:100E2C0015811581D003D002900648E0FCA3E0FDAB
:100E3C008A068B0778007900C3EE98EF648089F0FE
:100E4C0063F08095F04056C002C003E82CF582E9AF
:100E5C003DF583E0FA3395E0FBC002C003C004C04B
:100E6C0005C006C007C000C001C002C0037409C0A1
:100E7C00E07429C0E07480C0E0121997E58124FB6E
:100E8C00F581D001D000D007D006D005D004D00316
:100E9C00D00208B8000109D003D002809B9007143F
:100EAC00E4F0A3F0900646E0F50EA3E0F50F9006F3
:100EBC0048E0F50AA3E0F50B900712E0F8A3E0F97F
:100ECC00E4F50CF50DC3E50C98E50D648089F06331
:100EDC00F08095F05047C002C003E50C250EFAE5F2
:100EEC000D350FFB8A828B83E0FDE50C250AFFE5AF
:100EFC000D350BFE8F828E83E0FC8A828B83F08F04
:100F0C00828E83EDF0050CE4B50C02050D900714F0
:100F1C00E50CF0A3E50DF0D003D00280A8900714E7
:100F2C00E50CF0A3E50DF0C002C003745EC0E074E4
:100F3C0029C0E012170715811581D003D002C00219
:100F4C00C00374ECC0E07428C0E0121707158115BB
:100F5C0081D003D002900646E0FCA3E0FD8A068B0C
:100F6C000778007900C3EE98EF648089F063F08015
:100F7C0095F04056C002C003E82CF582E93DF5839C
:100F8C00E0FA3395E0FBC002C003C004C005C00604
:100F9C00C007C000C001C002C0037409C0E07429BE
:100FAC00C0E07480C0E0121997E58124FBF581D074
:100FBC0001D000D007D006D005D004D003D0020851
:100FCC00B8000109D003D002809BC002C003747A20
:100FDC00C0E07423C0E07480C0E01219971581152D
:100FEC00811581D003D002C002C0037446C0E074E6
:100FFC0029C0E012170715811581D003D002900685
:10100C0048E0FCA3E0FD8A068B0778007900C3EE6C
:10101C0098EF648089F063F08095F04056C002C070
:10102C0003E82CF582E93DF583E0FA3395E0FBC04B
:10103C0002C003C004C005C006C007C000C001C088
:10104C0002C0037409C0E07429C0E07480C0E012CF
:10105C001997E58124FBF581D001D000D007D0068B
:10106C00D005D004D003D00208B8000109D003D0B9
:10107C0002809B900724E0FCA3E0FD900718ECF0A5
:10108C00A3EDF0900726E0FCA3E0FD900724ECF024
:10109C00A3EDF0900718E0FCA3E0FD900726ECF020
:1010AC00A3EDF0900720E0FCA3E0FD900718ECF016
:1010BC00A3EDF0900722E0FCA3E0FD900720ECF0FC
:1010CC00A3EDF0900718E0FCA3E0FD900722ECF0F4
:1010DC00A3EDF090071AE0FCA3E0FD900718ECF0EC
:1010EC00A3EDF090071CE0FCA3E0FD90071AECF0D8
:1010FC00A3EDF0900718E0FCA3E0FD90071CECF0CA
:10110C00A3EDF0020265900646E0FCA3E0FD7E0034
:10111C008C828D838EF0C002C003121297D003D044
:10112C0002900646E4F0A3F0900648E0FCA3E0FD34
:10113C007E008C828D838EF0C002C003121297D079
:10114C0003D002900648E4F0A3F0900714E4F0A357
:10115C00F07C007D008C06EDCE25E0CE33FFEE2436
:10116C004AFEEF3406FF8E828F83E0F8A3E0F9B8D5
:10117C000005B90002804BC002C0038E828F83E051
:10118C00F8A3E0F97A00888289838AF0C002C00350
:10119C00C004C005C006C007121297D007D006D0F5
:1011AC0005D004D003D0028E828F83E4F0A3F00C20
:1011BC00BC00010D900714ECF0A3EDF0D003D002AD
:1011CC008093900714ECF0A3EDF0C002C003747A86
:1011DC00C0E07423C0E012170715811581D003D02D
:1011EC000202026590071EE0FCA3E0FD90071E744E
:1011FC00012CF0E43DA3F0020265E58290078EF02D
:10120C0090078EE0F59910990280FB2210980280CD
:06121C00FBAA998A822260
:10226F00456E746572206275666665722073697A51
:10227F0065206265747765656E20333220616E6408
:10228F0020313630302062797465732C2064697682
:10229F00697369626C652062792031360A0D006DB1
:1022AF00616C6C6F6320627566666572206661692A
:1022BF006C65640A0D0043686F6F7365206120734E
:1022CF006D616C6C657220627566666572207369EC
:1022DF007A650A0D006275666665725F3020616E01
:1022EF0064206275666665725F3120616C6C6F6326
:1022FF0061746564207375636365737366756C6C65
:10230F00790A0D000A0D54727920616761696E0AAE
:10231F000D000A0D456E746572206120636861724D
:10232F0061637465720A0D000A0D42756666657207
:10233F002066756C6C2E2054686973206973206158
:10234F006E206563686F210A0D000A0D54686520C1
:10235F0063686172616374657220796F7520656E51
:10236F0074657265642069733A20000A0D000A0DC6
:10237F00456E746572206275666665722073697A40
:10238F0065206265747765656E20323020616E64FA
:10239F00203430302062797465732074696C6C203E
:1023AF00796F752072756E206F7574206F66206857
:1023BF006561702073706163650A0D000A0D6D61B0
:1023CF006C6C6F6320627566666572206661696CFE
:1023DF0065640A0D004275666665722073706163ED
:1023EF0065207375636365737366756C6C792061B3
:1023FF006C6C6F63617465640A0D00627566666567
:10240F00725F256420616C6C6F63617465640A0D83
:10241F0000486561702066756C6C0A0D0054727906
:10242F0020616761696E0A0D000A0D596F7520638F
:10243F00616E2072656D6F76652062756666657276
:10244F005F31206F7220616E79206F66207468652E
:10245F0020616C6C6F63617465642062756666657C
:10246F00725F6E5B5D20627566666572730A0A0D38
:10247F00000A0D52656D6F7665206275666665722E
:10248F005F313F205B792F6E5D0A0A0D000A0D62E6
:10249F0075666665725F3120737563636573736606
:1024AF00756C6C792066726565640A0A0D00576950
:1024BF00736820746F206672656520616E6F746833
:1024CF006572206275666665723F205B792F6E5D5F
:1024DF000A0D0025700A0D000A0D456E74657220F5
:1024EF0074686520627566666572206E756D6265CB
:1024FF007220746F2062652066726565640A0D0034
:10250F00496E76616C696420627566666572206ECD
:10251F00756D6265722E2054727920616761696EE4
:10252F002E0A0D006275666665725F5B25645D201D
:10253F006672656564207375636365737366756C26
:10254F006C792E0A0D000A0D4E756D626572206F43
:10255F006620746F74616C20636861726163746567
:10256F0072732072656365697665643A2025640A23
:10257F000D004E756D626572206F662073746F72F9
:10258F00616765206368617261637465727320723D
:10259F00656365697665643A2025640A0A0D002A29
:1025AF002A2A2A2A2A2A2A2A2A2A2A2A2A2A2A2A7C
:1025BF002A2A2A2A2A2A2A2A2A2A2A2A2A2A2A2A6C
:1025CF002A2048454150205245504F5254202A2A24
:1025DF002A2A2A2A2A2A2A2A2A2A2A2A2A2A2A2A4C
:1025EF002A2A2A2A2A2A2A2A2A2A2A2A2A0A0A0D99
:1025FF00006275666665725F300A0D006275666609
:10260F0065725F30207374617274206164647265E7
:10261F0073733A2025700A0D006275666665725FE6
:10262F003020656E6420616464726573733A20258F
:10263F00700A0D00546F74616C20616C6C6F636174
:10264F007465642073697A65206F662062756666AB
:10265F0065725F303A2025640A0D004E756D626514
:10266F0072206F662073746F726167652063686193
:10267F00726163746572732063757272656E746CC8
:10268F007920696E206275666665725F303A202523
:10269F00640A0D004E756D626572206F662066725A
:1026AF0065652073706163657320696E206275665E
:1026BF006665725F303A2025640A0A0D00627566FE
:1026CF006665725F3120686173206265656E206494
:1026DF00656C657465640A0D000A0A0D0062756603
:1026EF006665725F310A0D006275666665725F31ED
:1026FF0020737461727420616464726573733A201D
:10270F0025700A0D006275666665725F3120656E11
:10271F006420616464726573733A2025700A0D003A
:10272F00546F74616C20616C6C6F636174656420AD
:10273F0073697A65206F66206275666665725F31B0
:10274F003A2025640A0D004E756D626572206F6622
:10275F002073746F7261676520636861726163745F
:10276F006572732063757272656E746C7920696E11
:10277F00206275666665725F313A2025640A0D0026
:10278F004E756D626572206F662066726565207387
:10279F00706163657320696E206275666665725F2E
:1027AF00313A2025640A0A0D00427566666572206B
:1027BF00686173206265656E2064656C657465641D
:1027CF000A0D00427566666572206E756D626572E0
:1027DF003A2025640A0D004275666665722073748F
:1027EF0061727420616464726573733A2025700A94
:1027FF000D0042756666657220656E6420616464C3
:10280F00726573733A2025700A0D00546F74616CF2
:10281F0020616C6C6F63617465642073697A6520E5
:10282F006F66206275666665725F6E5B25645D3AE2
:10283F002025640A0D004E756D626572206F66204B
:10284F0073746F7261676520636861726163746529
:10285F0072732063757272656E746C7920696E2065
:10286F006275666665725F6E5B25645D3A20300A3D
:10287F000D004E756D626572206F6620667265651C
:10288F002073706163657320696E2062756666657B
:10289F00725F6E5B25645D3A2025640A0A0D005451
:1028AF006F74616C206E756D626572206F66206348
:1028BF0068617261637465727320726563656976AE
:1028CF0065642073696E636520746865206C61733D
:1028DF007420273F273A2025640A0A0D00436F6EA4
:1028EF0074656E7473206F66206275666665725FBD
:1028FF00303A0A0D0025703A2000257820006275C5
:10290F00666665725F312064656C657465640A0D77
:10291F000053776170206E6F7420706F73736962EC
:10292F006C650A0D000A0A0D4265666F72652073A9
:10293F007761700A0A0D00436F6E74656E747320B1
:10294F006F66206275666665725F313A0A0D000A1E
:10295F000A0D416674657220737761700A0A0D0063
:10122200AA83E582900791F0A3EAF0900791E0FA91
:10123200A3E0FB4A700490000022EA24FCFAEB349B
:10124200FFFB90079BE0FCA3E0FD900793ECF0A36B
:10125200EDF090078FE4F0A3F0900793E0FCA3E099
:10126200FD4C6025EAB50406EBB50502801B90072C
:101272008FECF0A3EDF08C828D83E0FCA3E0FD9077
:101282000793ECF0A3EDF080D0900793E0FAA3E08F
:101292008A82F58322AAF0AB83E582900795F0A3B8
:1012A200EBF0A3EAF0900795E0FAA3E0FBA3E0FCE1
:1012B2008A828B83121222AA82AB83EA4B60289025
:1012C200078FE0FCA3E0FD4C700B8A828B83A3A303
:1012D200E4F0A3F0228A828B83E0FAA3E0FB8C8203
:0812E2008D83EAF0A3EBF0227A
:06003200E478FFF6D8FDA2
:100010007900E94400601B7A0090297A78EB75A09A
:1000200007E493F2A308B8000205A0D9F4DAF27548
:02003000A0FF2F
:1012EA00AAF0AB83E582900798F0A3EBF0A3EAF0AB
:1012FA007A007B00900798E0FCA3E0FDA3E0FE8C57
:10130A00828D838EF0122236FF6039C374B98FF052
:10131A0063F08095F04007EF648094B050268C8289
:10132A008D838EF0122236FFBF2D028017BF2B024B
:10133A0080120CBC00010D900798ECF0A3EDF0A30D
:10134A00EEF080BB900798ECF0A3EDF0A3EEF08CE2
:10135A00828D838EF0122236FFE4BF2D0104F888B5
:10136A00017003BF2B0E90079874012CF0E43DA383
:10137A00F0A3EEF0900798E0FCA3E0FDA3E0FE8C5A
:10138A00828D838EF0122236FF6068C3EF648094E8
:10139A00B0406074B98FF063F08095F04055C00199
:1013AA009007B2740AF0E4A3F08A828B83C004C067
:1013BA0005C006C007C00112180F85821085831167
:1013CA00D001D007D006D005D004EF3395E0F8EF6E
:1013DA0024D0FFE834FFF8EF2510FAE83511FB0CAA
:1013EA00BC00010D900798ECF0A3EDF0A3EEF0D04D
:1013FA0001808C900798ECF0A3EDF0A3EEF0E96081
:10140A0009C3E49AFCE49BFD80048A048B058C8260
:10141A008D8322AA83E58290079FF0A3EAF09007C2
:10142A009FE0FAA3E0FB9007A1EAF0A3EBF0EA4BF6
:10143A0070209007A174012AF0E43BA3F090079D65
:10144A00E0FAA3E0FB1ABAFF011B90079DEAF0A39A
:10145A00EBF09007A1E0FAA3E0FB90079BEAF0A368
:10146A00EBF090079DE0FCA3E0FDEC2AFCED3BFDD0
:10147A00EC24FEFCED34FFFD8A828B83ECF0A3EDB5
:10148A00F08C828D83E4F0A3F08A828B83A3A3E499
:10149A00F0A3F022AA83E5829007A3F0A3EAF090D2
:1014AA0007A3E0FAA3E0FBC374FB9A74FF9B500402
:1014BA00900000229007A374042AF0E43BA3F09062
:1014CA00079BE0FAA3E0FB9007A5EAF0A3EBF090F4
:1014DA0007A3E0F518A3E0F5199007A5E0FCA3E03F
:1014EA00FD8C828D83E0FEA3E0FF8E008F018C02CB
:1014FA008D03E8C39AF8E99BF98C828D83A3A3E054
:10150A00FAA3E0FBE8C39AF8E99BF9C3E89518E95E
:10151A009519400D9007A774042CF0E43DA3F080C0
:10152A00239007A5EEF0A3EFF09007A5E0FAA3E059
:10153A00FB8A828B83E0FAA3E0FB4A709C9007A7A0
:10154A00E4F0A3F09007A7E0FAA3E0FB4A700302D5
:10155A0015CE9007A5E0FAA3E0FB74022AFCE43B4F
:10156A00FD8C828D83E0FEA3E0FF4E70139007A3EB
:10157A00E0F8A3E0F98C828D83E8F0A3E9F08044D7
:10158A00EE2AFEEF3BFF8A828B83E0FCA3E0FD8E0E
:10159A00828F83ECF0A3EDF08A828B83EEF0A3EFC7
:1015AA00F074022EFAE43FFB9007A3E0FCA3E0FDEF
:1015BA008A828B83ECF0A3EDF09007A774042EF0D7
:1015CA00E43FA3F09007A7E0FAA3E08A82F583221A
:1015DA00AAF0AB83E5829007A9F0A3EBF0A3EAF0A7
:1015EA009007A9E0FAA3E0FBA3E0FC9007ACEAF0BD
:1015FA00A3EBF0A3ECF09007AFE4F0A3F0121218FB
:10160A00AA82BA0802800DBA0A028067BA0D02805D
:10161A00620216B09007AFE0FBA3E0FC4B60DE75F8
:10162A008208C003C004121206D004D003758220B7
:10163A00C003C004121206D004D003758208C00386
:10164A00C004121206D004D0039007ACE0FDA3E058
:10165A00FEA3E0FF1DBDFF011E9007ACEDF0A3EE57
:10166A00F0A3EFF01BBBFF011C9007AFEBF0A3EC5C
:10167A00F0808A75820D12120675820A121206907D
:10168A0007ACE0FBA3E0FCA3E0FD8B828C838DF02A
:10169A00E41216EE9007A9E0FBA3E0FCA3E0FD8BA1
:1016AA00828C838DF0229007ACE0FBA3E0FCA3E0E0
:1016BA00FD8B828C838DF0EA1216EE9007AC7401D2
:1016CA002BF0E43CA3F0A3EDF09007AFE0FBA3E01E
:1016DA00FC9007AF74012BF0E43CA3F08A8212124B
:1016EA000602160720F71030F6118883A88220F523
:1016FA0007F6A88375830022F280F7F022C01285CC
:10170A008112E51224FDF8868318868218E493A3D1
:10171A0024DB600C242560051217F480F002180CF3
:10172A00D2D5E493A3C083C082B4731486F018861A
:10173A0083188682181222366053A31217F480F592
:10174A00B46307E6181217F48043B46417E630E767
:10175A004618E6F42401F608E6F43400F6742D126D
:10176A0017F48033B4782D868318868218E412170A
:10177A00E5E5831217E4E5831217E5E5821217E41B
:10178A00E5821217E530D50574301217F4D082D0ED
:10179A0083021717B475F6E6FA18E6F9187C107D75
:1017AA00271217CFFF7CE87D031217CFC4F5837C7D
:1017BA00647D001217CF4283E975F00A84C445F0AC
:1017CA00F582EF80A97B000BC3E99CF9EA9DFA50E8
:1017DA00F61BE92CF9EA3DFAEB22C4540F700320F8
:1017EA00D51FC2D52490D43440D4C083C082C0F05F
:1017FA00F582E8C0E0121206D0E0F8D0F0D082D02C
:10180A008322D01222AA83AB828BF09007B2E0A483
:10181A00F8A9F08AF0E0A429F98BF0A3E0A429F54D
:10182A008388822222AA83E5829007B6F0A3EAF08F
:10183A009007B6E0FAA3E0FB30E709C3E49AFCE4B8
:10184A009BFD80048A048B058C028D039007B4E00B
:10185A00FCA3E0FD30E709C3E49CFEE49DFF80049D
:10186A008C068D079007B8EEF0A3EFF08A828B837F
:10187A0012189DAA82AB839007B6E0FCA3E0FD3064
:10188A00E70CC3E49AFCE49BFD8C828D83228A8256
:10189A008B8322AA83E5829007BAF0A3EAF0900725
:1018AA00BCE4F09007BAE0FAA3E0FB7C009007B82A
:1018BA00E0FDA3E0FE235401FF7037EECD25E0CD15
:1018CA0033FE9007B8EDF0A3EEF09007B8E0FDA361
:1018DA00E0FEC3EA9DEB9E5011EEC313CD13CDFE7D
:1018EA009007B8EDF0A3EEF080080C9007BCECF07E
:1018FA0080BB9007BCE0FA9007BAE0FBA3E0FC903B
:10190A0007B8E0FDA3E0FEC3EB9DEC9E400B9007F9
:10191A00BAEBC39DF0EC9EA3F09007B8E0FBA3E0FE
:10192A00FCC313CB13CBFC9007B8EBF0A3ECF08A03
:10193A00031AEB70C29007BAE0FAA3E08A82F58331
:01194A00227A
:100038007800E84400600A790075A000E4F309D864
:10004800FC78EBE84407600C7908900000E4F0A322
:04005800D8FCD9FAFD
:10194B00C012858112AA82121206D01222AAF0AB03
:10195B0083E5829007BEF0A3EBF0A3EAF09007BEFD
:10196B00E0FAA3E0FBA3E0FC9007BDE0FD9007D1FC
:10197B00E4F0A3F0A3F09007D4EAF0A3EBF0A3EC10
:10198B00F09007D7EDF090194B021AB0C012858179
:10199B0012E51224FBFA9007D1E4F0A3F0A3F0E5D3
:1019AB001224FBF89007D4E6F008A3E6F008A3E6B0
:1019BB00F09007D7EAF090194B121AB0AA82AB83BA
:1019CB00D01222E5829007CDF09007CDE0FA900778
:1019DB00C3E0C0E0A3E0C0E0A3E0C0E074FCC0E063
:1019EB007419C0E09007C1E0C0E0A3E0C0E08A82B8
:1019FB00221581158115819007CBE0FAA3E0FB90AE
:101A0B0007CB74012AF0E43BA3F022E5829007CECA
:101A1B00F09007CEE0FA74302AFA24C6500A740705
:101A2B002AFA3000034302208A820219CEE5829003
:101A3B0007CFF09007CFE0FAC4540FFBF582C0023A
:101A4B00121A16D00253020F8A82021A16E58290DE
:101A5B0007D0F09007C6E0FAA3E0FBA3E0FCA3E0FD
:101A6B00FD9007CAE0FE9007D0E0FF7820EE2EFE37
:101A7B00ED235401F94206EA2AFAEB33FBEC33FC73
:101A8B00ED33FDC3EE9F4007EEC39FFE430201D82B
:101A9B00DC9007C6EAF0A3EBF0A3ECF0A3EDF0901B
:101AAB0007CAEEF022AA83E5829007D8F0A3EAF0EA
:101ABB009007D8E0FAA3E0FB9007C1EAF0A3EBF0A4
:101ACB009007D1E0FAA3E0FBA3E0FC9007C3EAF098
:101ADB00A3EBF0A3ECF09007CBE4F0A3F09007D4CA
:101AEB00E0FAA3E0FBA3E0FC8A828B838CF012224A
:101AFB0036FD9007D474012AF0E43BA3F0A3ECF07D
:101B0B00ED70030221D7BD250280030221CFC20154
:101B1B00C202C203C204C205C206C207C2089007B2
:101B2B00DAE4F09007DBF09007DC74FFF09007D459
:101B3B00E0FAA3E0FBA3E0FC8A828B838CF01222F9
:101B4B0036FEA3AA82AB839007D4EAF0A3EBF0A3F3
:101B5B00ECF09007DEEEF0BE25088E821219CE0255
:101B6B001AE88E07BF300040498E07EF24C640426B
:101B7B009007DCE0FFBFFF29C002C003C004900741
:101B8B00DBE0FA75F00AA4FAEE24D09007DB2AF01A
:101B9B009007DBE0FAD004D003D002709BD2028016
:101BAB0097EF75F00AA4FFEE24D09007DC2FF0021C
:101BBB001B439007DEE0FEBE2E089007DCE4F0022C
:101BCB001B438E82C002C003C004C006122252E522
:101BDB008224FF9200D006D004D003D0023000073D
:101BEB009007DE74DF5EF09007DEE0FEBE20028021
:101BFB0055BE2B02804BBE2D028041BE4202804B54
:101C0B00BE43028050BE4403021E44BE4603021E66
:101C1B0066BE4903021E44BE4C028034BE4F030213
:101C2B001E4EBE5003021DA6BE53028042BE55037C
:101C3B00021E56BE5803021E5E021E6AD201021B12
:101C4B0043D203021B43D204021B43D206021B43A3
:101C5B00D207021B439007D7E0FA24FEF89007D770
:101C6B00F08602088603188A821219CE021E76901D
:101C7B0007D7E0FA24FDF89007D7F0860208860311
:101C8B0008860418189007C6EAF0A3EBF0A3ECF053
:101C9B009007C6E0FAA3E0FBA3E0FC8A828B838C5F
:101CAB00F01221E3AA82AB839007DCE0FBBBFF05BC
:101CBB009007DCEAF02001389007DBE0FBC3EA9BDE
:101CCB00502E9007DBEBC39AF09007DBE0FB8B0405
:101CDB001B9007DBEBF0BC00028010758220C0026A
:101CEB00C0031219CED003D00280E39007DBEBF0D8
:101CFB009007DCE0FDC0029007C6E0FCA3E0FFA369
:101D0B00E0FA8C828F838AF0122236D00260538DD8
:101D1B00041DC374808CF063F08095F05044C002B6
:101D2B009007C6E0F513A3E0F514A3E0F5157401D5
:101D3B002513FBE43514FAAC159007C6EBF0A3EAB8
:101D4B00F0A3ECF08513828514838515F0122236EF
:101D5B00FAF582C002C0051219CED005D002D0020E
:101D6B008093200103021E769007DBE0FBC3EA9B06
:101D7B004003021E769007DBEBC39AF09007DBE083
:101D8B00FA8A031A9007DBEAF0BB0003021E717597
:101D9B008220C0021219CED00280E69007D7E0FB5A
:101DAB0024FDF89007D7F0860308860408860718E9
:101DBB00189007C6EBF0A3ECF0A3EFF09007C8E088
:101DCB00FB247F50089007DE7443F08020EB249FA8
:101DDB0050089007DE7450F08013EB24BF5008902E
:101DEB0007DE7449F080069007DE7458F09007DE2A
:101DFB00E0FBF582C0031219CED00375823AC00303
:101E0B001219CED003758230C0031219CED00375D0
:101E1B008278C0031219CED003BB4902800FBB508E
:101E2B0002800A9007C7E0FBF582121A389007C6AA
:101E3B00E0FBF582121A388032D2059007DA740A69
:101E4B00F080289007DA7408F080209007DA740A83
:101E5B00F080189007DA7410F08010D208800C8E86
:101E6B00821219CE80059007DBEAF030086B9007E1
:101E7B00D7E0FA24FCF89007D7F08602088603080F
:101E8B0086040886061818189007C6EAF0A3EBF02C
:101E9B00A3ECF0A3EEF09007C6746FF0A37429F0D7
:101EAB00A37480F09007C6E0FBA3E0FCA3E0FD74F5
:101EBB00012BFEE43CFF8D029007C6EEF0A3EFF082
:101ECB00A3EAF08B828C838DF0122236FA70030218
:101EDB001AE88A821219CE80CB9007DAE0FABA00A0
:101EEB0003021AE89007E574E4F0A37407F03006D8
:101EFB004C9007D7E0FA14F89007D7F08602EA3334
:101F0B0095E0FBFCFE9007C6EAF0A3EBF0A3ECF028
:101F1B00A3EEF0300503021FBE9007C6E0FAA3E064
:101F2B00FBA3E0FCA3E0FE7B007C007E009007C6D9
:101F3B00EAF0A3EBF0A3ECF0A3EEF0807630072AE7
:101F4B009007D7E0FA24FCF89007D7F086020886B2
:101F5B00030886040886061818189007C6EAF0A32B
:101F6B00EBF0A3ECF0A3EEF080499007D7E0FA2456
:101F7B00FEF89007D7F0860208860318EB3395E03E
:101F8B00FCFE9007C6EAF0A3EBF0A3ECF0A3EEF097
:101F9B002005209007C6E0FAA3E0FBA3E0FCA3E03A
:101FAB00FE7C007E009007C6EAF0A3EBF0A3ECF0FA
:101FBB00A3EEF030053E9007C6E0FAA3E0FBA3E0EA
:101FCB00FCA3E0FE30E72B9007C6E0FAA3E0FBA3EF
:101FDB00E0FCA3E0FEC3E49AFAE49BFBE49CFCE484
:101FEB009EFE9007C6EAF0A3EBF0A3ECF0A3EEF095
:101FFB008002C205D2099007DAE0FC7516E475176A
:10200B00077D009007CAE4F08C82C004C005121A49
:10201B0058D005D004200932C0049007CAE0FFC491
:10202B00FF851682851783E0FA420785168285178E
:10203B0083EFF0151674FFB5160215179007E5E53B
:10204B0016F0A3E517F0D004800C9007CAE0FF85CB
:10205B001682851783F00D9007DDEDF0B20990071E
:10206B00C6E0FFA3E0FAA3E0FEA3E0FBEF4A4E4B72
:10207B0070919007E5E516F0A3E517F09007DDEDFD
:10208B00F09007DBE0FA70069007DB7401F020029A
:10209B002720012474012DFA9007DBE0FBC3EA9B98
:1020AB005011758220C002C0031219CED003D0028A
:1020BB001B80EA9007DBEBF030051275822D1219AD
:1020CB00CE9007DBE0FA149007DBF0802F9007DD52
:1020DB00E0FA602830031275822B1219CE9007DBC1
:1020EB00E0FA149007DBF080133004107582201295
:1020FB0019CE9007DBE0FA149007DBF020012F904C
:10210B0007DDE0FA9007DBE0FB8B041B9007DBEBB2
:10211B00F0C3EA9C50363002047C3080027C208C69
:10212B0082C002C0031219CED003D00280DB90070D
:10213B00DBE0FA9007DDE0FCC39A50099007DBEA7D
:10214B00C39CF0800C9007DBE4F080059007DBEB81
:10215B00F09007E5E0FAA3E0FB9007DDE0FC8C06CE
:10216B001CEE6040B2092009150ABA00010B8A82E5
:10217B008B83E0FEC4540FFE9007CAF0800E8A8258
:10218B008B83E0FE53060F9007CAEEF09007CAE070
:10219B00FEF582C002C003C004121A16D004D0038D
:1021AB00D00280BA200103021AE89007DBE0FA8A1A
:1021BB00031AEB7003021AE8758220C0021219CEC3
:1021CB00D00280EB8D821219CE021AE89007CBE079
:0821DB00FAA3E08A82F58322D9
:0B296F003C4E4F20464C4F41543E00B0
:1021E300AAF0AB83E5829007E7F0A3EBF0A3EAF054
:1021F3007A007B009007E7E0FCA3E0FDA3E0FE8C00
:10220300828D838EF0122236FFA3AC82AD839007BA
:10221300E7ECF0A3EDF0A3EEF0EF60070ABA00DFFE
:102223000B80DC9007E7ECF0A3EDF0A3EEF08A82DD
:032233008B832278
:0D000300758121120064E582600302005F38
:1022360020F71430F6148883A88220F507E6A883D1
:1022460075830022E280F7E49322E022E58290077C
:10225600EAF09007EAE0FABA61004009EA2485400C
:0922660004758201227582002238
:00000001FF
